{
  "contractName": "Dice",
  "abi": [
    {
      "constant": true,
      "inputs": [],
      "name": "randomFactor",
      "outputs": [
        {
          "name": "",
          "type": "uint8"
        }
      ],
      "payable": false,
      "stateMutability": "view",
      "type": "function"
    },
    {
      "constant": true,
      "inputs": [
        {
          "name": "",
          "type": "address"
        }
      ],
      "name": "bets",
      "outputs": [
        {
          "name": "currentBet",
          "type": "uint8"
        },
        {
          "name": "isBetSet",
          "type": "bool"
        },
        {
          "name": "destiny",
          "type": "uint8"
        }
      ],
      "payable": false,
      "stateMutability": "view",
      "type": "function"
    },
    {
      "inputs": [],
      "payable": false,
      "stateMutability": "nonpayable",
      "type": "constructor"
    },
    {
      "payable": true,
      "stateMutability": "payable",
      "type": "fallback"
    },
    {
      "anonymous": false,
      "inputs": [
        {
          "indexed": false,
          "name": "currentBet",
          "type": "uint8"
        }
      ],
      "name": "NewBetIsSet",
      "type": "event"
    },
    {
      "anonymous": false,
      "inputs": [
        {
          "indexed": false,
          "name": "bidder",
          "type": "address"
        },
        {
          "indexed": false,
          "name": "currentBet",
          "type": "uint8"
        },
        {
          "indexed": false,
          "name": "destiny",
          "type": "uint8"
        }
      ],
      "name": "GameResult",
      "type": "event"
    },
    {
      "constant": true,
      "inputs": [],
      "name": "isBetSet",
      "outputs": [
        {
          "name": "",
          "type": "bool"
        }
      ],
      "payable": false,
      "stateMutability": "view",
      "type": "function"
    },
    {
      "constant": false,
      "inputs": [],
      "name": "getNewbet",
      "outputs": [
        {
          "name": "",
          "type": "uint8"
        }
      ],
      "payable": false,
      "stateMutability": "nonpayable",
      "type": "function"
    },
    {
      "constant": false,
      "inputs": [],
      "name": "roll",
      "outputs": [
        {
          "name": "",
          "type": "address"
        },
        {
          "name": "",
          "type": "uint8"
        },
        {
          "name": "",
          "type": "uint8"
        }
      ],
      "payable": false,
      "stateMutability": "nonpayable",
      "type": "function"
    }
  ],
  "bytecode": "0x608060405234801561001057600080fd5b50600a600160006101000a81548160ff021916908360ff160217905550610af98061003c6000396000f30060806040526004361061006d576000357c0100000000000000000000000000000000000000000000000000000000900463ffffffff168063031528e91461006f5780631ae651c8146100a057806389a78f1a146100cf578063cd5e3c5d14610144578063e9b903f4146101b5575b005b34801561007b57600080fd5b506100846101e6565b604051808260ff1660ff16815260200191505060405180910390f35b3480156100ac57600080fd5b506100b56101f9565b604051808215151515815260200191505060405180910390f35b3480156100db57600080fd5b50610110600480360381019080803573ffffffffffffffffffffffffffffffffffffffff16906020019092919050505061024f565b604051808460ff1660ff168152602001831515151581526020018260ff1660ff168152602001935050505060405180910390f35b34801561015057600080fd5b506101596102a0565b604051808473ffffffffffffffffffffffffffffffffffffffff1673ffffffffffffffffffffffffffffffffffffffff1681526020018360ff1660ff1681526020018260ff1660ff168152602001935050505060405180910390f35b3480156101c157600080fd5b506101ca610819565b604051808260ff1660ff16815260200191505060405180910390f35b600160009054906101000a900460ff1681565b60008060003373ffffffffffffffffffffffffffffffffffffffff1673ffffffffffffffffffffffffffffffffffffffff16815260200190815260200160002060000160019054906101000a900460ff16905090565b60006020528060005260406000206000915090508060000160009054906101000a900460ff16908060000160019054906101000a900460ff16908060000160029054906101000a900460ff16905083565b6000806000600115156000803373ffffffffffffffffffffffffffffffffffffffff1673ffffffffffffffffffffffffffffffffffffffff16815260200190815260200160002060000160019054906101000a900460ff16151514151561030657600080fd5b61030e610a90565b6000803373ffffffffffffffffffffffffffffffffffffffff1673ffffffffffffffffffffffffffffffffffffffff16815260200190815260200160002060000160026101000a81548160ff021916908360ff1602179055506000803373ffffffffffffffffffffffffffffffffffffffff1673ffffffffffffffffffffffffffffffffffffffff16815260200190815260200160002060000160029054906101000a900460ff16600160008282829054906101000a900460ff160192506101000a81548160ff021916908360ff16021790555060008060003373ffffffffffffffffffffffffffffffffffffffff1673ffffffffffffffffffffffffffffffffffffffff16815260200190815260200160002060000160016101000a81548160ff0219169083151502179055506000803373ffffffffffffffffffffffffffffffffffffffff1673ffffffffffffffffffffffffffffffffffffffff16815260200190815260200160002060000160009054906101000a900460ff1660ff166000803373ffffffffffffffffffffffffffffffffffffffff1673ffffffffffffffffffffffffffffffffffffffff16815260200190815260200160002060000160029054906101000a900460ff1660ff161415610653573373ffffffffffffffffffffffffffffffffffffffff166108fc655af3107a40009081150290604051600060405180830381858888f19350505050158015610532573d6000803e3d6000fd5b507ff2c19256ceef03eec7a00ba5e27726b55e9224b711266400dfe19267ac36f44d336000803373ffffffffffffffffffffffffffffffffffffffff1673ffffffffffffffffffffffffffffffffffffffff16815260200190815260200160002060000160009054906101000a900460ff166000803373ffffffffffffffffffffffffffffffffffffffff1673ffffffffffffffffffffffffffffffffffffffff16815260200190815260200160002060000160029054906101000a900460ff16604051808473ffffffffffffffffffffffffffffffffffffffff1673ffffffffffffffffffffffffffffffffffffffff1681526020018360ff1660ff1681526020018260ff1660ff168152602001935050505060405180910390a161076f565b7ff2c19256ceef03eec7a00ba5e27726b55e9224b711266400dfe19267ac36f44d336000803373ffffffffffffffffffffffffffffffffffffffff1673ffffffffffffffffffffffffffffffffffffffff16815260200190815260200160002060000160009054906101000a900460ff166000803373ffffffffffffffffffffffffffffffffffffffff1673ffffffffffffffffffffffffffffffffffffffff16815260200190815260200160002060000160029054906101000a900460ff16604051808473ffffffffffffffffffffffffffffffffffffffff1673ffffffffffffffffffffffffffffffffffffffff1681526020018360ff1660ff1681526020018260ff1660ff168152602001935050505060405180910390a15b336000803373ffffffffffffffffffffffffffffffffffffffff1673ffffffffffffffffffffffffffffffffffffffff16815260200190815260200160002060000160009054906101000a900460ff166000803373ffffffffffffffffffffffffffffffffffffffff1673ffffffffffffffffffffffffffffffffffffffff16815260200190815260200160002060000160029054906101000a900460ff16925092509250909192565b60008015156000803373ffffffffffffffffffffffffffffffffffffffff1673ffffffffffffffffffffffffffffffffffffffff16815260200190815260200160002060000160019054906101000a900460ff16151514151561087b57600080fd5b60016000803373ffffffffffffffffffffffffffffffffffffffff1673ffffffffffffffffffffffffffffffffffffffff16815260200190815260200160002060000160016101000a81548160ff0219169083151502179055506108dd610a90565b6000803373ffffffffffffffffffffffffffffffffffffffff1673ffffffffffffffffffffffffffffffffffffffff16815260200190815260200160002060000160006101000a81548160ff021916908360ff1602179055506000803373ffffffffffffffffffffffffffffffffffffffff1673ffffffffffffffffffffffffffffffffffffffff16815260200190815260200160002060000160009054906101000a900460ff16600160008282829054906101000a900460ff160192506101000a81548160ff021916908360ff1602179055507fc50c13e8ba4e2b764e19190b75b2704be0fe000a38d47bbf96f0b9d8a28fbd366000803373ffffffffffffffffffffffffffffffffffffffff1673ffffffffffffffffffffffffffffffffffffffff16815260200190815260200160002060000160009054906101000a900460ff16604051808260ff1660ff16815260200191505060405180910390a16000803373ffffffffffffffffffffffffffffffffffffffff1673ffffffffffffffffffffffffffffffffffffffff16815260200190815260200160002060000160009054906101000a900460ff16905090565b60008042600143030140600190049050600160009054906101000a900460ff1660ff16810190506001600582811515610ac557fe5b0601915050905600a165627a7a723058202314bdc7211a9eff26e8804867efb8ab6d9a16b5ab4c5fc996888e357b9399030029",
  "source": "pragma solidity ^0.4.24;\n\ncontract Dice{\n\n\tstruct Bet{\n\t\tuint8  currentBet;\n\t\tbool  isBetSet; //default value is false\t\n\t\tuint8  destiny;\n\t}\n\n\tmapping(address => Bet) public bets;\n\n\tuint8 public randomFactor;\n\n\tevent NewBetIsSet(uint8 currentBet);\n\n\tevent GameResult(address bidder, uint8 currentBet , uint8 destiny);\n\n\tconstructor() public{\n\t\trandomFactor = 10;\n\t}\n\n\tfunction isBetSet() public view returns(bool){\n\t\treturn bets[msg.sender].isBetSet;\n\t}\n\n\tfunction getNewbet() public returns(uint8){\n\t\trequire(bets[msg.sender].isBetSet == false);\n\t\tbets[msg.sender].isBetSet = true;\n\t\tbets[msg.sender].currentBet = random();\n\t\trandomFactor += bets[msg.sender].currentBet;\n\t\temit NewBetIsSet(bets[msg.sender].currentBet);\n\t\treturn bets[msg.sender].currentBet;\n\t}\n\n\tfunction roll() public returns(address , uint8 , uint8){\n\t\trequire(bets[msg.sender].isBetSet == true);\n\t\tbets[msg.sender].destiny = random();\n\t\trandomFactor += bets[msg.sender].destiny;\n\t\tbets[msg.sender].isBetSet = false;\n\t\tif(bets[msg.sender].destiny == bets[msg.sender].currentBet){\n\t\t\tmsg.sender.transfer(100000000000000);\n\t\t\temit GameResult(msg.sender, bets[msg.sender].currentBet, bets[msg.sender].destiny);\t\t\t\n\t\t}else{\n\t\t\temit GameResult(msg.sender, bets[msg.sender].currentBet, bets[msg.sender].destiny);\n\t\t}\n\t\treturn (msg.sender , bets[msg.sender].currentBet , bets[msg.sender].destiny);\n\t}\n\n\n    function random() private view returns (uint8) {\n       \tuint256 blockValue = uint256(blockhash(block.number-1 + block.timestamp));\n        blockValue = blockValue + uint256(randomFactor);\n        return uint8(blockValue % 5) + 1;\n    }\n\n    function() public payable{}\n\t\n\n}",
  "sourcePath": "/home/batman/code/dapp/contracts/Dice.sol",
  "compiler": {
    "name": "solc",
    "version": "0.4.24+commit.e67f0147.Emscripten.clang"
  },
  "schemaVersion": "2.0.1",
  "updatedAt": "2018-11-05T01:29:37.054Z"
}