{
  "contractName": "Dice",
  "abi": [
    {
      "constant": true,
      "inputs": [],
      "name": "randomFactor",
      "outputs": [
        {
          "name": "",
          "type": "uint8"
        }
      ],
      "payable": false,
      "stateMutability": "view",
      "type": "function"
    },
    {
      "inputs": [],
      "payable": false,
      "stateMutability": "nonpayable",
      "type": "constructor"
    },
    {
      "payable": true,
      "stateMutability": "payable",
      "type": "fallback"
    },
    {
      "anonymous": false,
      "inputs": [
        {
          "indexed": false,
          "name": "currentBet",
          "type": "uint8"
        }
      ],
      "name": "NewBetIsSet",
      "type": "event"
    },
    {
      "anonymous": false,
      "inputs": [
        {
          "indexed": false,
          "name": "bidder",
          "type": "address"
        },
        {
          "indexed": false,
          "name": "currentBet",
          "type": "uint8"
        },
        {
          "indexed": false,
          "name": "destiny",
          "type": "uint8"
        }
      ],
      "name": "GameResult",
      "type": "event"
    },
    {
      "constant": false,
      "inputs": [],
      "name": "getNewbet",
      "outputs": [
        {
          "name": "",
          "type": "uint8"
        }
      ],
      "payable": false,
      "stateMutability": "nonpayable",
      "type": "function"
    },
    {
      "constant": false,
      "inputs": [],
      "name": "roll",
      "outputs": [
        {
          "name": "",
          "type": "address"
        },
        {
          "name": "",
          "type": "uint8"
        },
        {
          "name": "",
          "type": "uint8"
        }
      ],
      "payable": false,
      "stateMutability": "nonpayable",
      "type": "function"
    }
  ],
  "bytecode": "0x608060405234801561001057600080fd5b50600a600160006101000a81548160ff021916908360ff1602179055506109988061003c6000396000f300608060405260043610610057576000357c0100000000000000000000000000000000000000000000000000000000900463ffffffff168063031528e914610059578063cd5e3c5d1461008a578063e9b903f4146100fb575b005b34801561006557600080fd5b5061006e61012c565b604051808260ff1660ff16815260200191505060405180910390f35b34801561009657600080fd5b5061009f61013f565b604051808473ffffffffffffffffffffffffffffffffffffffff1673ffffffffffffffffffffffffffffffffffffffff1681526020018360ff1660ff1681526020018260ff1660ff168152602001935050505060405180910390f35b34801561010757600080fd5b506101106106b8565b604051808260ff1660ff16815260200191505060405180910390f35b600160009054906101000a900460ff1681565b6000806000600115156000803373ffffffffffffffffffffffffffffffffffffffff1673ffffffffffffffffffffffffffffffffffffffff16815260200190815260200160002060000160019054906101000a900460ff1615151415156101a557600080fd5b6101ad61092f565b6000803373ffffffffffffffffffffffffffffffffffffffff1673ffffffffffffffffffffffffffffffffffffffff16815260200190815260200160002060000160026101000a81548160ff021916908360ff1602179055506000803373ffffffffffffffffffffffffffffffffffffffff1673ffffffffffffffffffffffffffffffffffffffff16815260200190815260200160002060000160029054906101000a900460ff16600160008282829054906101000a900460ff160192506101000a81548160ff021916908360ff16021790555060008060003373ffffffffffffffffffffffffffffffffffffffff1673ffffffffffffffffffffffffffffffffffffffff16815260200190815260200160002060000160016101000a81548160ff0219169083151502179055506000803373ffffffffffffffffffffffffffffffffffffffff1673ffffffffffffffffffffffffffffffffffffffff16815260200190815260200160002060000160009054906101000a900460ff1660ff166000803373ffffffffffffffffffffffffffffffffffffffff1673ffffffffffffffffffffffffffffffffffffffff16815260200190815260200160002060000160029054906101000a900460ff1660ff1614156104f2573373ffffffffffffffffffffffffffffffffffffffff166108fc655af3107a40009081150290604051600060405180830381858888f193505050501580156103d1573d6000803e3d6000fd5b507ff2c19256ceef03eec7a00ba5e27726b55e9224b711266400dfe19267ac36f44d336000803373ffffffffffffffffffffffffffffffffffffffff1673ffffffffffffffffffffffffffffffffffffffff16815260200190815260200160002060000160009054906101000a900460ff166000803373ffffffffffffffffffffffffffffffffffffffff1673ffffffffffffffffffffffffffffffffffffffff16815260200190815260200160002060000160029054906101000a900460ff16604051808473ffffffffffffffffffffffffffffffffffffffff1673ffffffffffffffffffffffffffffffffffffffff1681526020018360ff1660ff1681526020018260ff1660ff168152602001935050505060405180910390a161060e565b7ff2c19256ceef03eec7a00ba5e27726b55e9224b711266400dfe19267ac36f44d336000803373ffffffffffffffffffffffffffffffffffffffff1673ffffffffffffffffffffffffffffffffffffffff16815260200190815260200160002060000160009054906101000a900460ff166000803373ffffffffffffffffffffffffffffffffffffffff1673ffffffffffffffffffffffffffffffffffffffff16815260200190815260200160002060000160029054906101000a900460ff16604051808473ffffffffffffffffffffffffffffffffffffffff1673ffffffffffffffffffffffffffffffffffffffff1681526020018360ff1660ff1681526020018260ff1660ff168152602001935050505060405180910390a15b336000803373ffffffffffffffffffffffffffffffffffffffff1673ffffffffffffffffffffffffffffffffffffffff16815260200190815260200160002060000160009054906101000a900460ff166000803373ffffffffffffffffffffffffffffffffffffffff1673ffffffffffffffffffffffffffffffffffffffff16815260200190815260200160002060000160029054906101000a900460ff16925092509250909192565b60008015156000803373ffffffffffffffffffffffffffffffffffffffff1673ffffffffffffffffffffffffffffffffffffffff16815260200190815260200160002060000160019054906101000a900460ff16151514151561071a57600080fd5b60016000803373ffffffffffffffffffffffffffffffffffffffff1673ffffffffffffffffffffffffffffffffffffffff16815260200190815260200160002060000160016101000a81548160ff02191690831515021790555061077c61092f565b6000803373ffffffffffffffffffffffffffffffffffffffff1673ffffffffffffffffffffffffffffffffffffffff16815260200190815260200160002060000160006101000a81548160ff021916908360ff1602179055506000803373ffffffffffffffffffffffffffffffffffffffff1673ffffffffffffffffffffffffffffffffffffffff16815260200190815260200160002060000160009054906101000a900460ff16600160008282829054906101000a900460ff160192506101000a81548160ff021916908360ff1602179055507fc50c13e8ba4e2b764e19190b75b2704be0fe000a38d47bbf96f0b9d8a28fbd366000803373ffffffffffffffffffffffffffffffffffffffff1673ffffffffffffffffffffffffffffffffffffffff16815260200190815260200160002060000160009054906101000a900460ff16604051808260ff1660ff16815260200191505060405180910390a16000803373ffffffffffffffffffffffffffffffffffffffff1673ffffffffffffffffffffffffffffffffffffffff16815260200190815260200160002060000160009054906101000a900460ff16905090565b60008042600143030140600190049050600160009054906101000a900460ff1660ff1681019050600160058281151561096457fe5b0601915050905600a165627a7a723058208fe39d5757cf43a2fcf49cb1b6480de6e64e8c4a129795200b25b149fca1ac180029",
  "source": "pragma solidity ^0.4.24;\n\ncontract Dice{\n\n\tstruct Dice{\n\t\tuint8  currentBet;\n\t\tbool  isBetSet; //default value is false\n\t\tuint8  destiny;\n\t}\n\n\tmapping(address => Dice) private bets;\n\n\tuint8 public randomFactor;\n\n\tevent NewBetIsSet(uint8 currentBet);\n\n\tevent GameResult(address bidder, uint8 currentBet , uint8 destiny);\n\n\tconstructor() public{\n\t\trandomFactor = 10;\n\t}\n\n\tfunction getNewbet() public returns(uint8){\n\t\trequire(bets[msg.sender].isBetSet == false);\n\t\tbets[msg.sender].isBetSet = true;\n\t\tbets[msg.sender].currentBet = random();\n\t\trandomFactor += bets[msg.sender].currentBet;\n\t\temit NewBetIsSet(bets[msg.sender].currentBet);\n\t\treturn bets[msg.sender].currentBet;\n\t}\n\n\tfunction roll() public returns(address , uint8 , uint8){\n\t\trequire(bets[msg.sender].isBetSet == true);\n\t\tbets[msg.sender].destiny = random();\n\t\trandomFactor += bets[msg.sender].destiny;\n\t\tbets[msg.sender].isBetSet = false;\n\t\tif(bets[msg.sender].destiny == bets[msg.sender].currentBet){\n\t\t\tmsg.sender.transfer(100000000000000);\n\t\t\temit GameResult(msg.sender, bets[msg.sender].currentBet, bets[msg.sender].destiny);\t\t\t\n\t\t}else{\n\t\t\temit GameResult(msg.sender, bets[msg.sender].currentBet, bets[msg.sender].destiny);\n\t\t}\n\t\treturn (msg.sender , bets[msg.sender].currentBet , bets[msg.sender].destiny);\n\t}\n\n\n    function random() private view returns (uint8) {\n       \tuint256 blockValue = uint256(blockhash(block.number-1 + block.timestamp));\n        blockValue = blockValue + uint256(randomFactor);\n        return uint8(blockValue % 5) + 1;\n    }\n\n    function() public payable{}\n\t\n\n}",
  "sourcePath": "/home/batman/code/dapp/contracts/Dice.sol",
  "compiler": {
    "name": "solc",
    "version": "0.4.24+commit.e67f0147.Emscripten.clang"
  },
  "schemaVersion": "2.0.1",
  "updatedAt": "2018-11-05T00:16:07.084Z"
}