{
  "contractName": "Game",
  "abi": [
    {
      "constant": true,
      "inputs": [],
      "name": "randomFactor",
      "outputs": [
        {
          "name": "",
          "type": "uint8"
        }
      ],
      "payable": false,
      "stateMutability": "view",
      "type": "function"
    },
    {
      "constant": true,
      "inputs": [],
      "name": "isBetSet",
      "outputs": [
        {
          "name": "",
          "type": "bool"
        }
      ],
      "payable": false,
      "stateMutability": "view",
      "type": "function"
    },
    {
      "constant": true,
      "inputs": [],
      "name": "currentBet",
      "outputs": [
        {
          "name": "",
          "type": "uint8"
        }
      ],
      "payable": false,
      "stateMutability": "view",
      "type": "function"
    },
    {
      "inputs": [],
      "payable": false,
      "stateMutability": "nonpayable",
      "type": "constructor"
    },
    {
      "payable": true,
      "stateMutability": "payable",
      "type": "fallback"
    },
    {
      "anonymous": false,
      "inputs": [
        {
          "indexed": false,
          "name": "currentBet",
          "type": "uint8"
        }
      ],
      "name": "NewBetIsSet",
      "type": "event"
    },
    {
      "anonymous": false,
      "inputs": [
        {
          "indexed": false,
          "name": "bidder",
          "type": "address"
        },
        {
          "indexed": false,
          "name": "currentBet",
          "type": "uint8"
        },
        {
          "indexed": false,
          "name": "destiny",
          "type": "uint8"
        }
      ],
      "name": "GameResult",
      "type": "event"
    },
    {
      "constant": false,
      "inputs": [],
      "name": "getNewbet",
      "outputs": [
        {
          "name": "",
          "type": "uint8"
        }
      ],
      "payable": false,
      "stateMutability": "nonpayable",
      "type": "function"
    },
    {
      "constant": false,
      "inputs": [],
      "name": "roll",
      "outputs": [
        {
          "name": "",
          "type": "address"
        },
        {
          "name": "",
          "type": "uint8"
        },
        {
          "name": "",
          "type": "uint8"
        }
      ],
      "payable": false,
      "stateMutability": "nonpayable",
      "type": "function"
    }
  ],
  "bytecode": "0x608060405234801561001057600080fd5b5060008060016101000a81548160ff021916908315150217905550600a600060036101000a81548160ff021916908360ff16021790555061059b806100566000396000f30060806040526004361061006d576000357c0100000000000000000000000000000000000000000000000000000000900463ffffffff168063031528e91461006f5780631ae651c8146100a0578063cd5e3c5d146100cf578063d504cb6514610140578063e9b903f414610171575b005b34801561007b57600080fd5b506100846101a2565b604051808260ff1660ff16815260200191505060405180910390f35b3480156100ac57600080fd5b506100b56101b5565b604051808215151515815260200191505060405180910390f35b3480156100db57600080fd5b506100e46101c8565b604051808473ffffffffffffffffffffffffffffffffffffffff1673ffffffffffffffffffffffffffffffffffffffff1681526020018360ff1660ff1681526020018260ff1660ff168152602001935050505060405180910390f35b34801561014c57600080fd5b50610155610448565b604051808260ff1660ff16815260200191505060405180910390f35b34801561017d57600080fd5b5061018661045a565b604051808260ff1660ff16815260200191505060405180910390f35b600060039054906101000a900460ff1681565b600060019054906101000a900460ff1681565b600080600060011515600060019054906101000a900460ff1615151415156101ef57600080fd5b6101f7610532565b600060026101000a81548160ff021916908360ff160217905550600060029054906101000a900460ff16600060038282829054906101000a900460ff160192506101000a81548160ff021916908360ff16021790555060008060016101000a81548160ff0219169083151502179055506000809054906101000a900460ff1660ff16600060029054906101000a900460ff1660ff161415610380573373ffffffffffffffffffffffffffffffffffffffff166108fc655af3107a40009081150290604051600060405180830381858888f193505050501580156102de573d6000803e3d6000fd5b507ff2c19256ceef03eec7a00ba5e27726b55e9224b711266400dfe19267ac36f44d336000809054906101000a900460ff16600060029054906101000a900460ff16604051808473ffffffffffffffffffffffffffffffffffffffff1673ffffffffffffffffffffffffffffffffffffffff1681526020018360ff1660ff1681526020018260ff1660ff168152602001935050505060405180910390a161041d565b7ff2c19256ceef03eec7a00ba5e27726b55e9224b711266400dfe19267ac36f44d336000809054906101000a900460ff16600060029054906101000a900460ff16604051808473ffffffffffffffffffffffffffffffffffffffff1673ffffffffffffffffffffffffffffffffffffffff1681526020018360ff1660ff1681526020018260ff1660ff168152602001935050505060405180910390a15b336000809054906101000a900460ff16600060029054906101000a900460ff16925092509250909192565b6000809054906101000a900460ff1681565b60006001600060016101000a81548160ff02191690831515021790555061047f610532565b6000806101000a81548160ff021916908360ff1602179055506000809054906101000a900460ff16600060038282829054906101000a900460ff160192506101000a81548160ff021916908360ff1602179055507fc50c13e8ba4e2b764e19190b75b2704be0fe000a38d47bbf96f0b9d8a28fbd366000809054906101000a900460ff16604051808260ff1660ff16815260200191505060405180910390a16000809054906101000a900460ff16905090565b60008042600143030140600190049050600060039054906101000a900460ff1660ff1681019050600160058281151561056757fe5b0601915050905600a165627a7a72305820f7eba0c88c1d7b9b57e5cb8722e0e9a4cbfa163cf5ef54ca61b790c62ab492e50029",
  "source": "pragma solidity ^0.4.24;\n\ncontract Game{\n\n\tuint8 public currentBet;\n\n\tbool public isBetSet;\n\n\tuint8 private destiny;\n\n\tuint8 public randomFactor;\n\n\tevent NewBetIsSet(uint8 currentBet);\n\n\tevent GameResult(address bidder, uint8 currentBet , uint8 destiny);\n\n\tconstructor() public{\n\t\tisBetSet = false;\n\t\trandomFactor = 10;\n\t}\n\n\tfunction getNewbet() public returns(uint8){\n\t\tisBetSet = true;\n\t\tcurrentBet = random();\n\t\trandomFactor += currentBet;\n\t\temit NewBetIsSet(currentBet);\n\t\treturn currentBet;\n\t}\n\n\tfunction roll() public returns(address , uint8 , uint8){\n\t\trequire(isBetSet == true);\n\t\tdestiny = random();\n\t\trandomFactor += destiny;\n\t\tisBetSet = false;\n\t\tif(destiny == currentBet){\n\t\t\tmsg.sender.transfer(100000000000000);\n\t\t\temit GameResult(msg.sender, currentBet, destiny);\t\t\t\n\t\t}else{\n\t\t\temit GameResult(msg.sender, currentBet, destiny);\n\t\t}\n\t\treturn (msg.sender , currentBet , destiny);\n\t}\n\n\n    function random() private view returns (uint8) {\n       \tuint256 blockValue = uint256(blockhash(block.number-1 + block.timestamp));\n        blockValue = blockValue + uint256(randomFactor);\n        return uint8(blockValue % 5) + 1;\n    }\n\n    function() public payable{}\n\t\n\n}",
  "sourcePath": "/home/batman/code/dapp/contracts/Game.sol",
  "compiler": {
    "name": "solc",
    "version": "0.4.24+commit.e67f0147.Emscripten.clang"
  },
  "schemaVersion": "2.0.1",
  "updatedAt": "2018-11-05T02:48:03.967Z"
}